:0E00000013C0FECFFDCFFCCFFBCFFACFF9CF60
:10000E00F8CFF7CFF6CFF5CF48C1F3CFF2CFF1CF80
:10001E0050C063C0020480200801F894EE27ECBBA8
:10002E00E5BFF8E1A895A4B7A77FA4BFF1BDE1BDD8
:10003E008DE0A2E0ED938A95E9F780E8A0E6ED93D6
:10004E008A95E9F7E0E0E3BBE4BBE5BBEFEDEDBF7E
:10005E00C0E8E7C0E0E0E0938B00E0938A00E09315
:10006E009500E09394000895AA93F4DFE881E85E8A
:10007E00E0938000EAB3E065EABBDE9ADC9AD6989C
:10008E00E8EAEDB9E0EEEEB92196089526D1A091F9
:10009E008A00EA17D9F321D1EF5FE770E0938B0066
:1000AE001CD1EE57E081089518D1A0918A0043D15A
:1000BE000895EA93E0E014D1D698CC9B02C0CE9B73
:1000CE0001C001C0FACFCE9902C0E8EF01C0E8EA44
:1000DE00EDB9E0EEEEB9E9911895AA93EA93EFB770
:1000EE00EA93E0918100E030B9F4EFB1E03039F0FD
:1000FE00EFB1E695AE2FE0918000EA1741F4789BC0
:10010E0002C0E1E001C0E4E0EED0EEE603C0E8EAB2
:10011E00EDB9E0E6EEB945C0E33049F4EFB1E030B9
:10012E0029F0E8EAEDB9E0E6EEB93BC002C0E130F5
:10013E00C1F4E0919500A0919400EA1761F0E0916E
:10014E009500EF5FE770E0939500E0919500E4571E
:10015E00E081EFB901C025C0E2E0C2D0D69AE0E658
:10016E001FC0E23031F4E3E0BBD0D698E0E0EFB947
:10017E0016C0E43029F4E5E0B3D0D698E0E610C01E
:10018E00E53079F4E0918A00EF5FE770E0938A0042
:10019E00A0918A00AE57EFB1EC93E4E0A4D0EEE666
:1001AE00EEB9E991EFBFE991A9911895E8EAEABB9A
:1001BE00E0E0EBBBE7E0E7BBE0E0E8BB0895AA9325
:1001CE001A9396D09CD051F1A0D0A4D0E9811E17DD
:1001DE0020F48ED09AD01F5FF9CF20C0AA931A9325
:1001EE009ED08DD0D9F0A2D095D0E9811E1720F4E3
:1001FE0096D09CD01F5FF9CF11C0AA931A93EA81B3
:10020E00F0E0EE5DFF4F1491AA81A23020F41A9314
:10021E00AA81E4DF03C01A93AA81D1DF1881239645
:10022E000895E0E8E6BDE0E0E6BDC0DF1DD07894BD
:10023E00C89B02C0E0E001C0E1E01E2FE9EAEABB84
:10024E00A12F12DFC09A30DFE03061F01FDF0E2FDA
:10025E00E295EF70E6953E2FE02FEF712E2F3A9339
:10026E00A22FCBDFF0CFFFCFE0E0E0BFE3E0E3BFB4
:10027E00E2E8E2BFE0E0E6BFECBFE1E0E9BF222446
:10028E003324442455240895BA93AA934880598060
:10029E00042C0528E9F7229608950A92EA93FA9318
:1002AE00EFB7EA93E2E8E2BF042C052819F0F20159
:1002BE0031972F01F10131961F01E8EEF3E02E1672
:1002CE003F062CF022243324772009F07A94E9910A
:1002DE00EFBFF991E99109901895E0918B0008957F
:1002EE00E09381000895FCDFE0E0EFB9D69A08951F
:1002FE00EBB3AE2FEA81E095EA23EBBB0895A5E0C0
:10030E00B0E0C2DFA981AF310895EBB3AA81EA2B29
:10031E00EBBB08958BE18A95F1F710E00895E8B3F1
:10032E00AE2FEA81E095EA23E8BB0895E8B3AA81EF
:10033E00EA2BE8BB0895EA17E1E009F4EE270895E9
:00000001FF
