:0600000048C0FECFFDCF59
:10000600FCCFFBCFCAC2F9CFF8CFF7CFF6CFF5CFEB
:10001600F4CFF3CFF2CFF1CF0000000001001F1E96
:100026001D1C1B1A19171513110E0B0804000304C7
:100036000506070808070605040307070707070755
:100046000707070707070C000F1215171800C70345
:1000560060030E03CA029102600236021102F10128
:10006600D501BB01A40190017D016C0106000200CF
:100076001E000F00A00024001800B0003400070086
:10008600D4004C001E00DB0054000000F894EE275C
:10009600ECBBE5BFF8E1A895A4B7A77FA4BFF1BD67
:1000A600E1BD8DE0A2E0BB27ED938A95E9F780E0FC
:1000B60091E0A0E6ED930197E9F7E2E7F0E085919C
:1000C6009591009761F0A591B59105901590BF01A6
:1000D600F00105900D920197E1F7FB01F0CFE0E00A
:1000E600E1BBE2BBE3BBEFE5EDBFE1E0EEBFC0EA9B
:1000F600D0E0FFC0AA93A881A031A9F0A03011F0EA
:10010600E1E001C0E0E0E03011F4C49801C0C49A17
:10011600A881A23011F0E1E001C0E0E0E03011F486
:10012600C19801C0C19AF8C2AA93AB81A23079F4F2
:10013600E981AC81AE1738F0EA81E03011F0E9814F
:1001460001C0E88103C0EC81EF5FEC830EC0E8815B
:10015600AC81EA1738F0EA81E03011F0E88101C09D
:10016600E98103C0EC81E150EC83EC839FC2AA9342
:10017600A981A63038F0E2E3E093FB00E981E6507E
:10018600E98303C0E0E3E093FB00E981E295E07FC9
:10019600EE0FA881EA2BE093FC00EBEFF0E0FA9378
:1001A600EA93A2E061D2AFC2AA93E4D210E01C3077
:1001B60048F5E12FAD81EA0F0E2F0C3008F00C50F8
:1001C600EE81F0E0EC52FF4FE0810E0FE02FF0E001
:1001D600E055FF4F20813327022E032A41F0EC81A0
:1001E600F0E0A7E0B0E0AE1BBF0B2A1B3B0BA0EA7A
:1001F600B0E0A20FB31F2C9133271A93A22FB7DFBB
:100206001F5FD5CFBED2279608952297B1D2A3E01D
:100216000BD28F0120E030E0E0E0EE83EF83AE8189
:10022600BF815097A8F4EE81FF81ABEDB0E0EE0FF1
:10023600FF1FAE0FBF1FD8D20E171F0718F02E8153
:100246003F8106C0EE81FF813196EE83FF83E7CFC3
:10025600F101A0D2E22BF32BAF012416350639F1BA
:100266001A01E2E2F2E25AD221F0E1E1F1E156D2DC
:1002760029F4E8EEF3E02F0154D238C0E4E4F4E4C4
:100286004DD221F0E8E8F8E849D249F4442455244F
:10029600E3E07E2EA72D66D1E42FEF7027C0042E53
:1002A600052A21F44424552477241FC01EC0042C9B
:1002B600052819F055D1309709F009C0EDE7F0E0AF
:1002C600E415F50510F4569447942BD20FC0772009
:1002D60019F04DD1E03009F008C0E8E8F8E81ED280
:1002E60011F424D202C0E0E101C0E0E048D2289631
:1002F60008952497E0E8E6BDE0E0E6BD06D10AD120
:1003060087D189D1A6D1A0E000D20E2F0F3FE1F010
:10031600E295E7703E2F373008F036E0E02FEF70B9
:100326002E2F2C3008F02BE0A1E0EFD10E2F0F3F3F
:1003360039F0E295E770EA83E02FEF705E2F03C095
:1003460051E0E0E0EA8305C030E020E051E0E0E083
:10035600EA8312E0E0E0E9837894F1D1A12FCADEC6
:10036600A4E1F5D1F6D151DF0E2F003009F48AC091
:10037600E6D1662009F47FC0083011F410E078C099
:100386000430D9F4103011F4303009F402C011E011
:1003960013C0133081F4E0E0EA93E32FE295E07FA7
:1003A600E22BAE2FA5D1E1E0EA93EB81E295E07F67
:1003B600E52BAE2F9DD112E05BC0003111F413E0A6
:1003C60057C0023019F0013009F052C0E12FF0E0B9
:1003D600309781F43A930A93E0E0EA93E5E0BDD1E1
:1003E6003E2F313031F4553008F455E05F3008F0D7
:1003F6005EE03DC0E130A0E0FA0741F42A930A939B
:10040600E0E0EA93EBE0A9D12E2F31C0E230A0E084
:10041600FA0701F5313011F4EEE001C0EFE04E2F9E
:10042600313011F4E5E001C0E1E0EB835A930A9321
:10043600E1E0EA934A93AF8177DE5E2F451719F024
:10044600EB81E51731F4C498A2E381D1C49AA2E303
:100456007ED10DC0E330A0E0FA0749F4EA81EA93C1
:100466000A93E1E0EA93E7E078D1EA8368D171D1B3
:10047600A12F40DE07C0E1E06E2EA12F3BDE69D141
:10048600E0E0E983662071F4E981EF5FE983E077D4
:10049600E03511F4E1E001C0E0E0E03011F4C49889
:1004A60001C0C49A133029F5A981AF5FA983A03290
:1004B60010F0E0E0E983E981E695E883EA81A88126
:1004C600AE1710F4E1E001C0E0E0E03011F4C498AA
:1004D60001C0C49AEA81A881AE1710F0A73008F0CF
:1004E60002C0E1E001C0E0E0E03011F4C19801C0D3
:1004F600C19AA4E12CD1AA81A73018F444D0E030E7
:1005060009F401C013D12FCFFFCFE2E1E7BBE0E052
:10051600E8BB0895E0E0EABDE3E0E3BFE2E8E2BF5E
:10052600E0E0E9BDE8BDE2E0E9BF88249924AA2419
:10053600BB24CC24DD24E0E0E093FE00E093FF0042
:10054600E09300010895BA93AA93C880D9800C2C31
:100556000D28E9F7D8C0BA93AA93A880B980D3C06A
:10056600F5010895AA93E881E093FE00D5C0E091D5
:10057600FE000895BA93AA93E881F981E093FF00FB
:10058600F0930001C0C0A091FF00B0910001109748
:1005960011F4E1E001C0E0E008950A92AA93BA934B
:1005A600EA93FA93EFB7EA93E2E8E2BF0A2C0B2844
:1005B60019F0F50131975F010C2C0D2819F0F601A1
:1005C60031976F01F40131964F01E8EEF3E08E1694
:1005D6009F06B4F088249924E091FE00E03019F0DB
:1005E600E150E093FE00E091FF00F09100013097AA
:1005F60039F0AFEFB0E0ED91FD913197FE93EE93B8
:10060600E991EFBFF991E991B991A99109901895EE
:10061600E0E8E8B90895E8E0E4BBE0E0E7B9E7E838
:10062600E6B9E0E0E3B90895AA93E881E7B9A881BD
:10063600A13229F480ED97E00197F1F703C08BE131
:100646008A95F1F7369A349BFECF349AE4B1F5B128
:1006560063C0C09AC29ABA9AB89AEFEFEFB9EAE2C3
:10066600EDB9E0EEEEB90895AA9386D010EE0EEE3F
:10067600C29AB29BFECF74D0C09876D0C29874D07E
:10068600C09AC298AB81BC81ED91AB83BC83EFB9B4
:10069600A12F0ED0B898A02F0BD0E17021F4EA81DB
:1006A600E150EA8371F71BD0E1E06DD025960895FD
:1006B600AA93E881EEB9EBE2E88352D0E881EDB97E
:1006C600B29BFECF51D0E881EDB9769BF6CF48D0EC
:1006D600EFB1E883EFEFEFB9B89AE8811DC0C09893
:1006E600C29AB29BFECF40D0C09A3AD0E1E00895BC
:1006F600AA93E199FECFE0E0ECBBE981EEBBE8818D
:10070600EDBBE29AE19A22960895AA93E199FECF6B
:10071600E881EEBBE09AEDB321960895E417F5075C
:100726000895D20118DFE42FEF7008956624C49867
:10073600C198E6E0EA93E0E0EA93A0E035CDEA81ED
:10074600F0E03196A8E0B7E03CD0DF0113CFB0E08F
:10075600FACE3A932A93A52F27CDEA93A0E0E4CCCC
:100766008DE08A95F1F708958BE08A95F1F7089563
:100776005A934A933A932A931A930A9308955D815A
:100786004C813B812A81198108810895F195E19573
:10079600F0400895EE0FFF1FEE0FFF1FEE0FFF1F35
:1007A600EE0FFF1F089581E10024111805C010F413
:1007B6000A0E1B1E16940794F795E7958A95B9F7C6
:1007C600089504D0F0DF0EF4E1DF0895E894F7FF12
:1007D60002C0DCDF6894B7FF06C0B195A195B040B2
:1007E60000F8039400FA0895ED91FC91119708958D
:00000001FF
